{
  "abi": [
    {
      "inputs": [
        {
          "internalType": "address payable",
          "name": "charityWalletAddress",
          "type": "address"
        }
      ],
      "stateMutability": "nonpayable",
      "type": "constructor"
    },
    {
      "anonymous": false,
      "inputs": [
        {
          "indexed": true,
          "internalType": "address",
          "name": "owner",
          "type": "address"
        },
        {
          "indexed": true,
          "internalType": "address",
          "name": "spender",
          "type": "address"
        },
        {
          "indexed": false,
          "internalType": "uint256",
          "name": "value",
          "type": "uint256"
        }
      ],
      "name": "Approval",
      "type": "event"
    },
    {
      "anonymous": false,
      "inputs": [
        {
          "indexed": false,
          "internalType": "uint256",
          "name": "minTokensBeforeSwap",
          "type": "uint256"
        }
      ],
      "name": "MinTokensBeforeSwapUpdated",
      "type": "event"
    },
    {
      "anonymous": false,
      "inputs": [
        {
          "indexed": true,
          "internalType": "address",
          "name": "previousOwner",
          "type": "address"
        },
        {
          "indexed": true,
          "internalType": "address",
          "name": "newOwner",
          "type": "address"
        }
      ],
      "name": "OwnershipTransferred",
      "type": "event"
    },
    {
      "anonymous": false,
      "inputs": [
        {
          "indexed": false,
          "internalType": "bool",
          "name": "enabled",
          "type": "bool"
        }
      ],
      "name": "SwapEnabledUpdated",
      "type": "event"
    },
    {
      "anonymous": false,
      "inputs": [
        {
          "indexed": true,
          "internalType": "address",
          "name": "from",
          "type": "address"
        },
        {
          "indexed": true,
          "internalType": "address",
          "name": "to",
          "type": "address"
        },
        {
          "indexed": false,
          "internalType": "uint256",
          "name": "value",
          "type": "uint256"
        }
      ],
      "name": "Transfer",
      "type": "event"
    },
    {
      "inputs": [],
      "name": "_charityWalletAddress",
      "outputs": [
        {
          "internalType": "address payable",
          "name": "",
          "type": "address"
        }
      ],
      "stateMutability": "view",
      "type": "function"
    },
    {
      "inputs": [],
      "name": "_getETHBalance",
      "outputs": [
        {
          "internalType": "uint256",
          "name": "balance",
          "type": "uint256"
        }
      ],
      "stateMutability": "view",
      "type": "function"
    },
    {
      "inputs": [
        {
          "internalType": "uint256",
          "name": "charityFee",
          "type": "uint256"
        }
      ],
      "name": "_setCharityFee",
      "outputs": [],
      "stateMutability": "nonpayable",
      "type": "function"
    },
    {
      "inputs": [
        {
          "internalType": "address payable",
          "name": "charityWalletAddress",
          "type": "address"
        }
      ],
      "name": "_setCharityWallet",
      "outputs": [],
      "stateMutability": "nonpayable",
      "type": "function"
    },
    {
      "inputs": [
        {
          "internalType": "uint256",
          "name": "maxTxAmount",
          "type": "uint256"
        }
      ],
      "name": "_setMaxTxAmount",
      "outputs": [],
      "stateMutability": "nonpayable",
      "type": "function"
    },
    {
      "inputs": [
        {
          "internalType": "uint256",
          "name": "taxFee",
          "type": "uint256"
        }
      ],
      "name": "_setTaxFee",
      "outputs": [],
      "stateMutability": "nonpayable",
      "type": "function"
    },
    {
      "inputs": [
        {
          "internalType": "address",
          "name": "owner",
          "type": "address"
        },
        {
          "internalType": "address",
          "name": "spender",
          "type": "address"
        }
      ],
      "name": "allowance",
      "outputs": [
        {
          "internalType": "uint256",
          "name": "",
          "type": "uint256"
        }
      ],
      "stateMutability": "view",
      "type": "function"
    },
    {
      "inputs": [
        {
          "internalType": "address",
          "name": "spender",
          "type": "address"
        },
        {
          "internalType": "uint256",
          "name": "amount",
          "type": "uint256"
        }
      ],
      "name": "approve",
      "outputs": [
        {
          "internalType": "bool",
          "name": "",
          "type": "bool"
        }
      ],
      "stateMutability": "nonpayable",
      "type": "function"
    },
    {
      "inputs": [
        {
          "internalType": "address",
          "name": "account",
          "type": "address"
        }
      ],
      "name": "balanceOf",
      "outputs": [
        {
          "internalType": "uint256",
          "name": "",
          "type": "uint256"
        }
      ],
      "stateMutability": "view",
      "type": "function"
    },
    {
      "inputs": [],
      "name": "decimals",
      "outputs": [
        {
          "internalType": "uint8",
          "name": "",
          "type": "uint8"
        }
      ],
      "stateMutability": "view",
      "type": "function"
    },
    {
      "inputs": [
        {
          "internalType": "address",
          "name": "spender",
          "type": "address"
        },
        {
          "internalType": "uint256",
          "name": "subtractedValue",
          "type": "uint256"
        }
      ],
      "name": "decreaseAllowance",
      "outputs": [
        {
          "internalType": "bool",
          "name": "",
          "type": "bool"
        }
      ],
      "stateMutability": "nonpayable",
      "type": "function"
    },
    {
      "inputs": [
        {
          "internalType": "uint256",
          "name": "tAmount",
          "type": "uint256"
        }
      ],
      "name": "deliver",
      "outputs": [],
      "stateMutability": "nonpayable",
      "type": "function"
    },
    {
      "inputs": [
        {
          "internalType": "address",
          "name": "account",
          "type": "address"
        }
      ],
      "name": "excludeAccount",
      "outputs": [],
      "stateMutability": "nonpayable",
      "type": "function"
    },
    {
      "inputs": [],
      "name": "geUnlockTime",
      "outputs": [
        {
          "internalType": "uint256",
          "name": "",
          "type": "uint256"
        }
      ],
      "stateMutability": "view",
      "type": "function"
    },
    {
      "inputs": [
        {
          "internalType": "address",
          "name": "account",
          "type": "address"
        }
      ],
      "name": "includeAccount",
      "outputs": [],
      "stateMutability": "nonpayable",
      "type": "function"
    },
    {
      "inputs": [
        {
          "internalType": "address",
          "name": "spender",
          "type": "address"
        },
        {
          "internalType": "uint256",
          "name": "addedValue",
          "type": "uint256"
        }
      ],
      "name": "increaseAllowance",
      "outputs": [
        {
          "internalType": "bool",
          "name": "",
          "type": "bool"
        }
      ],
      "stateMutability": "nonpayable",
      "type": "function"
    },
    {
      "inputs": [
        {
          "internalType": "address",
          "name": "account",
          "type": "address"
        }
      ],
      "name": "isExcluded",
      "outputs": [
        {
          "internalType": "bool",
          "name": "",
          "type": "bool"
        }
      ],
      "stateMutability": "view",
      "type": "function"
    },
    {
      "inputs": [
        {
          "internalType": "address",
          "name": "account",
          "type": "address"
        }
      ],
      "name": "isExcludedFromFee",
      "outputs": [
        {
          "internalType": "bool",
          "name": "",
          "type": "bool"
        }
      ],
      "stateMutability": "view",
      "type": "function"
    },
    {
      "inputs": [
        {
          "internalType": "uint256",
          "name": "time",
          "type": "uint256"
        }
      ],
      "name": "lock",
      "outputs": [],
      "stateMutability": "nonpayable",
      "type": "function"
    },
    {
      "inputs": [],
      "name": "manualSend",
      "outputs": [],
      "stateMutability": "nonpayable",
      "type": "function"
    },
    {
      "inputs": [],
      "name": "manualSwap",
      "outputs": [],
      "stateMutability": "nonpayable",
      "type": "function"
    },
    {
      "inputs": [],
      "name": "name",
      "outputs": [
        {
          "internalType": "string",
          "name": "",
          "type": "string"
        }
      ],
      "stateMutability": "view",
      "type": "function"
    },
    {
      "inputs": [],
      "name": "owner",
      "outputs": [
        {
          "internalType": "address",
          "name": "",
          "type": "address"
        }
      ],
      "stateMutability": "view",
      "type": "function"
    },
    {
      "inputs": [
        {
          "internalType": "uint256",
          "name": "tAmount",
          "type": "uint256"
        },
        {
          "internalType": "bool",
          "name": "deductTransferFee",
          "type": "bool"
        }
      ],
      "name": "reflectionFromToken",
      "outputs": [
        {
          "internalType": "uint256",
          "name": "",
          "type": "uint256"
        }
      ],
      "stateMutability": "view",
      "type": "function"
    },
    {
      "inputs": [],
      "name": "renounceOwnership",
      "outputs": [],
      "stateMutability": "nonpayable",
      "type": "function"
    },
    {
      "inputs": [
        {
          "internalType": "address",
          "name": "account",
          "type": "address"
        },
        {
          "internalType": "bool",
          "name": "excluded",
          "type": "bool"
        }
      ],
      "name": "setExcludeFromFee",
      "outputs": [],
      "stateMutability": "nonpayable",
      "type": "function"
    },
    {
      "inputs": [
        {
          "internalType": "bool",
          "name": "enabled",
          "type": "bool"
        }
      ],
      "name": "setSwapEnabled",
      "outputs": [],
      "stateMutability": "nonpayable",
      "type": "function"
    },
    {
      "inputs": [],
      "name": "swapEnabled",
      "outputs": [
        {
          "internalType": "bool",
          "name": "",
          "type": "bool"
        }
      ],
      "stateMutability": "view",
      "type": "function"
    },
    {
      "inputs": [],
      "name": "symbol",
      "outputs": [
        {
          "internalType": "string",
          "name": "",
          "type": "string"
        }
      ],
      "stateMutability": "view",
      "type": "function"
    },
    {
      "inputs": [
        {
          "internalType": "uint256",
          "name": "rAmount",
          "type": "uint256"
        }
      ],
      "name": "tokenFromReflection",
      "outputs": [
        {
          "internalType": "uint256",
          "name": "",
          "type": "uint256"
        }
      ],
      "stateMutability": "view",
      "type": "function"
    },
    {
      "inputs": [],
      "name": "totalFees",
      "outputs": [
        {
          "internalType": "uint256",
          "name": "",
          "type": "uint256"
        }
      ],
      "stateMutability": "view",
      "type": "function"
    },
    {
      "inputs": [],
      "name": "totalSupply",
      "outputs": [
        {
          "internalType": "uint256",
          "name": "",
          "type": "uint256"
        }
      ],
      "stateMutability": "view",
      "type": "function"
    },
    {
      "inputs": [
        {
          "internalType": "address",
          "name": "recipient",
          "type": "address"
        },
        {
          "internalType": "uint256",
          "name": "amount",
          "type": "uint256"
        }
      ],
      "name": "transfer",
      "outputs": [
        {
          "internalType": "bool",
          "name": "",
          "type": "bool"
        }
      ],
      "stateMutability": "nonpayable",
      "type": "function"
    },
    {
      "inputs": [
        {
          "internalType": "address",
          "name": "sender",
          "type": "address"
        },
        {
          "internalType": "address",
          "name": "recipient",
          "type": "address"
        },
        {
          "internalType": "uint256",
          "name": "amount",
          "type": "uint256"
        }
      ],
      "name": "transferFrom",
      "outputs": [
        {
          "internalType": "bool",
          "name": "",
          "type": "bool"
        }
      ],
      "stateMutability": "nonpayable",
      "type": "function"
    },
    {
      "inputs": [
        {
          "internalType": "address",
          "name": "newOwner",
          "type": "address"
        }
      ],
      "name": "transferOwnership",
      "outputs": [],
      "stateMutability": "nonpayable",
      "type": "function"
    },
    {
      "inputs": [],
      "name": "uniswapV2Pair",
      "outputs": [
        {
          "internalType": "address",
          "name": "",
          "type": "address"
        }
      ],
      "stateMutability": "view",
      "type": "function"
    },
    {
      "inputs": [],
      "name": "uniswapV2Router",
      "outputs": [
        {
          "internalType": "contract IUniswapV2Router02",
          "name": "",
          "type": "address"
        }
      ],
      "stateMutability": "view",
      "type": "function"
    },
    {
      "inputs": [],
      "name": "unlock",
      "outputs": [],
      "stateMutability": "nonpayable",
      "type": "function"
    },
    {
      "stateMutability": "payable",
      "type": "receive"
    }
  ],
  "bytecode": {
    "object": "0x60c060405269152d02c7e14af68000006009819055620000229060001962000478565b62000030906000196200049b565b600a55604080518082019091526009808252682aa5a9102a37b5b2b760b91b60209092019182526200006591600c91620003d2565b50604080518082019091526003808252622aa5a960e91b60209092019182526200009291600d91620003d2565b50600e805460ff19166009179055600a600f819055601081905560118190556012556013805461ffff60a01b1916600160a81b17905569152d02c7e14af6800000601455662386f26fc10000601555348015620000ee57600080fd5b5060405162002dc938038062002dc98339810160408190526200011191620004da565b600080546001600160a01b031916339081178255604051909182917f8be0079c531659141344cd1fd0a4f28419497f9722a3daafe3b4186f6b6457e0908290a350601380546001600160a01b0319166001600160a01b038316179055600a54600360006200017c3390565b6001600160a01b03166001600160a01b03168152602001908152602001600020819055506000737a250d5630b4cf539739df2c5dacb4c659f2488d9050806001600160a01b031663c45a01556040518163ffffffff1660e01b8152600401602060405180830381865afa158015620001f8573d6000803e3d6000fd5b505050506040513d601f19601f820116820180604052508101906200021e9190620004da565b6001600160a01b031663c9c6539630836001600160a01b031663ad5c46486040518163ffffffff1660e01b8152600401602060405180830381865afa1580156200026c573d6000803e3d6000fd5b505050506040513d601f19601f82011682018060405250810190620002929190620004da565b6040516001600160e01b031960e085901b1681526001600160a01b039283166004820152911660248201526044016020604051808303816000875af1158015620002e0573d6000803e3d6000fd5b505050506040513d601f19601f82011682018060405250810190620003069190620004da565b6001600160a01b0390811660a0528116608052600160066000620003326000546001600160a01b031690565b6001600160a01b0316815260208082019290925260409081016000908120805494151560ff1995861617905530815260069092529020805490911660011790556200037a3390565b6001600160a01b031660006001600160a01b03167fddf252ad1be2c89b69c2b068fc378daa952ba7f163c4a11628f55a4df523b3ef600954604051620003c291815260200190565b60405180910390a350506200053e565b828054620003e09062000501565b90600052602060002090601f0160209004810192826200040457600085556200044f565b82601f106200041f57805160ff19168380011785556200044f565b828001600101855582156200044f579182015b828111156200044f57825182559160200191906001019062000432565b506200045d92915062000461565b5090565b5b808211156200045d576000815560010162000462565b6000826200049657634e487b7160e01b600052601260045260246000fd5b500690565b600082821015620004bc57634e487b7160e01b600052601160045260246000fd5b500390565b6001600160a01b0381168114620004d757600080fd5b50565b600060208284031215620004ed57600080fd5b8151620004fa81620004c1565b9392505050565b600181811c908216806200051657607f821691505b602082108114156200053857634e487b7160e01b600052602260045260246000fd5b50919050565b60805160a051612849620005806000396000818161040601526118050152600081816102c101528181611abf01528181611b780152611bb401526128496000f3fe6080604052600436106102295760003560e01c806376d4ab9911610123578063cba0e996116100ab578063f2cc0c181161006f578063f2cc0c18146106c8578063f2fde38b146106e8578063f429389014610708578063f815a8421461071d578063f84354f11461073057600080fd5b8063cba0e996146105e9578063d047e4b714610622578063dd46706414610642578063dd62ed3e14610662578063e01af92c146106a857600080fd5b8063a457c2d7116100f2578063a457c2d71461055f578063a69df4b51461057f578063a9059cbb14610594578063af9549e0146105b4578063b6c52324146105d457600080fd5b806376d4ab99146104ec5780638da5cb5b1461050c57806395d89b411461052a578063a24a8d0f1461053f57600080fd5b806339509351116101b15780635342acb4116101755780635342acb41461043d5780635880b873146104765780636ddd17131461049657806370a08231146104b7578063715018a6146104d757600080fd5b806339509351146103945780633bd5d173146103b45780634549b039146103d457806349bd5a5e146103f457806351bc3c851461042857600080fd5b806318160ddd116101f857806318160ddd146102fb5780631bbae6e01461031057806323b872dd146103325780632d83811914610352578063313ce5671461037257600080fd5b806306fdde0314610235578063095ea7b31461026057806313114a9d146102905780631694505e146102af57600080fd5b3661023057005b600080fd5b34801561024157600080fd5b5061024a610750565b604051610257919061240d565b60405180910390f35b34801561026c57600080fd5b5061028061027b366004612477565b6107e2565b6040519015158152602001610257565b34801561029c57600080fd5b50600b545b604051908152602001610257565b3480156102bb57600080fd5b506102e37f000000000000000000000000000000000000000000000000000000000000000081565b6040516001600160a01b039091168152602001610257565b34801561030757600080fd5b506009546102a1565b34801561031c57600080fd5b5061033061032b3660046124a3565b6107f9565b005b34801561033e57600080fd5b5061028061034d3660046124bc565b6108a8565b34801561035e57600080fd5b506102a161036d3660046124a3565b610911565b34801561037e57600080fd5b50600e5460405160ff9091168152602001610257565b3480156103a057600080fd5b506102806103af366004612477565b610995565b3480156103c057600080fd5b506103306103cf3660046124a3565b6109cb565b3480156103e057600080fd5b506102a16103ef366004612512565b610ab5565b34801561040057600080fd5b506102e37f000000000000000000000000000000000000000000000000000000000000000081565b34801561043457600080fd5b50610330610b42565b34801561044957600080fd5b5061028061045836600461253e565b6001600160a01b031660009081526006602052604090205460ff1690565b34801561048257600080fd5b506103306104913660046124a3565b610b85565b3480156104a257600080fd5b5060135461028090600160a81b900460ff1681565b3480156104c357600080fd5b506102a16104d236600461253e565b610c12565b3480156104e357600080fd5b50610330610c71565b3480156104f857600080fd5b506013546102e3906001600160a01b031681565b34801561051857600080fd5b506000546001600160a01b03166102e3565b34801561053657600080fd5b5061024a610cd3565b34801561054b57600080fd5b5061033061055a3660046124a3565b610ce2565b34801561056b57600080fd5b5061028061057a366004612477565b610d6f565b34801561058b57600080fd5b50610330610dbe565b3480156105a057600080fd5b506102806105af366004612477565b610ec4565b3480156105c057600080fd5b506103306105cf36600461255b565b610ed1565b3480156105e057600080fd5b506002546102a1565b3480156105f557600080fd5b5061028061060436600461253e565b6001600160a01b031660009081526007602052604090205460ff1690565b34801561062e57600080fd5b5061033061063d36600461253e565b610f26565b34801561064e57600080fd5b5061033061065d3660046124a3565b610f72565b34801561066e57600080fd5b506102a161067d366004612587565b6001600160a01b03918216600090815260056020908152604080832093909416825291909152205490565b3480156106b457600080fd5b506103306106c33660046125c0565b610ff7565b3480156106d457600080fd5b506103306106e336600461253e565b61103f565b3480156106f457600080fd5b5061033061070336600461253e565b61120a565b34801561071457600080fd5b506103306112e2565b34801561072957600080fd5b50476102a1565b34801561073c57600080fd5b5061033061074b36600461253e565b611316565b6060600c805461075f906125db565b80601f016020809104026020016040519081016040528092919081815260200182805461078b906125db565b80156107d85780601f106107ad576101008083540402835291602001916107d8565b820191906000526020600020905b8154815290600101906020018083116107bb57829003601f168201915b5050505050905090565b60006107ef3384846114cd565b5060015b92915050565b6000546001600160a01b0316331461082c5760405162461bcd60e51b815260040161082390612616565b60405180910390fd5b69152d02c7e14af68000008110156108a35760405162461bcd60e51b815260206004820152603460248201527f6d61785478416d6f756e742073686f756c642062652067726561746572207468604482015273616e20313030303030303030303030303030653960601b6064820152608401610823565b601455565b60006108b58484846115f1565b6109078433610902856040518060600160405280602881526020016127a7602891396001600160a01b038a16600090815260056020908152604080832033845290915290205491906118b9565b6114cd565b5060019392505050565b6000600a548211156109785760405162461bcd60e51b815260206004820152602a60248201527f416d6f756e74206d757374206265206c657373207468616e20746f74616c207260448201526965666c656374696f6e7360b01b6064820152608401610823565b60006109826118f3565b905061098e8382611916565b9392505050565b3360008181526005602090815260408083206001600160a01b038716845290915281205490916107ef9185906109029086611958565b3360008181526007602052604090205460ff1615610a405760405162461bcd60e51b815260206004820152602c60248201527f4578636c75646564206164647265737365732063616e6e6f742063616c6c207460448201526b3434b990333ab731ba34b7b760a11b6064820152608401610823565b6000610a4b836119b7565b505050506001600160a01b038416600090815260036020526040902054919250610a7791905082611a13565b6001600160a01b038316600090815260036020526040902055600a54610a9d9082611a13565b600a55600b54610aad9084611958565b600b55505050565b6000600954831115610b095760405162461bcd60e51b815260206004820152601f60248201527f416d6f756e74206d757374206265206c657373207468616e20737570706c79006044820152606401610823565b81610b28576000610b19846119b7565b509395506107f3945050505050565b6000610b33846119b7565b509295506107f3945050505050565b6000546001600160a01b03163314610b6c5760405162461bcd60e51b815260040161082390612616565b6000610b7730610c12565b9050610b8281611a55565b50565b6000546001600160a01b03163314610baf5760405162461bcd60e51b815260040161082390612616565b60018110158015610bc15750600a8111155b610c0d5760405162461bcd60e51b815260206004820152601a60248201527f7461784665652073686f756c6420626520696e2031202d2031300000000000006044820152606401610823565b600f55565b6001600160a01b03811660009081526007602052604081205460ff1615610c4f57506001600160a01b031660009081526004602052604090205490565b6001600160a01b0382166000908152600360205260409020546107f390610911565b6000546001600160a01b03163314610c9b5760405162461bcd60e51b815260040161082390612616565b600080546040516001600160a01b03909116906000805160206127cf833981519152908390a3600080546001600160a01b0319169055565b6060600d805461075f906125db565b6000546001600160a01b03163314610d0c5760405162461bcd60e51b815260040161082390612616565b60018110158015610d1e5750600b8111155b610d6a5760405162461bcd60e51b815260206004820152601e60248201527f636861726974794665652073686f756c6420626520696e2031202d20313100006044820152606401610823565b601055565b60006107ef3384610902856040518060600160405280602581526020016127ef602591393360009081526005602090815260408083206001600160a01b038d16845290915290205491906118b9565b6001546001600160a01b03163314610e245760405162461bcd60e51b815260206004820152602360248201527f596f7520646f6e27742068617665207065726d697373696f6e20746f20756e6c6044820152626f636b60e81b6064820152608401610823565b6002544211610e755760405162461bcd60e51b815260206004820152601f60248201527f436f6e7472616374206973206c6f636b656420756e74696c20372064617973006044820152606401610823565b600154600080546040516001600160a01b0393841693909116916000805160206127cf83398151915291a3600154600080546001600160a01b0319166001600160a01b03909216919091179055565b60006107ef3384846115f1565b6000546001600160a01b03163314610efb5760405162461bcd60e51b815260040161082390612616565b6001600160a01b03919091166000908152600660205260409020805460ff1916911515919091179055565b6000546001600160a01b03163314610f505760405162461bcd60e51b815260040161082390612616565b601380546001600160a01b0319166001600160a01b0392909216919091179055565b6000546001600160a01b03163314610f9c5760405162461bcd60e51b815260040161082390612616565b60008054600180546001600160a01b03199081166001600160a01b03841617909155169055610fcb8142612661565b600255600080546040516001600160a01b03909116906000805160206127cf833981519152908390a350565b6000546001600160a01b031633146110215760405162461bcd60e51b815260040161082390612616565b60138054911515600160a81b0260ff60a81b19909216919091179055565b6000546001600160a01b031633146110695760405162461bcd60e51b815260040161082390612616565b737a250d5630b4cf539739df2c5dacb4c659f2488d6001600160a01b03821614156110e15760405162461bcd60e51b815260206004820152602260248201527f57652063616e206e6f74206578636c75646520556e697377617020726f757465604482015261391760f11b6064820152608401610823565b6001600160a01b03811660009081526007602052604090205460ff161561114a5760405162461bcd60e51b815260206004820152601b60248201527f4163636f756e7420697320616c7265616479206578636c7564656400000000006044820152606401610823565b6001600160a01b038116600090815260036020526040902054156111a4576001600160a01b03811660009081526003602052604090205461118a90610911565b6001600160a01b0382166000908152600460205260409020555b6001600160a01b03166000818152600760205260408120805460ff191660019081179091556008805491820181559091527ff3f7a9fe364faab93b216da50a3214154f22a0a2b415b23a84c8169e8b636ee30180546001600160a01b0319169091179055565b6000546001600160a01b031633146112345760405162461bcd60e51b815260040161082390612616565b6001600160a01b0381166112995760405162461bcd60e51b815260206004820152602660248201527f4f776e61626c653a206e6577206f776e657220697320746865207a65726f206160448201526564647265737360d01b6064820152608401610823565b600080546040516001600160a01b03808516939216916000805160206127cf83398151915291a3600080546001600160a01b0319166001600160a01b0392909216919091179055565b6000546001600160a01b0316331461130c5760405162461bcd60e51b815260040161082390612616565b47610b8281611c35565b6000546001600160a01b031633146113405760405162461bcd60e51b815260040161082390612616565b6001600160a01b03811660009081526007602052604090205460ff166113a85760405162461bcd60e51b815260206004820152601b60248201527f4163636f756e7420697320616c7265616479206578636c7564656400000000006044820152606401610823565b60005b6008548110156114c957816001600160a01b0316600882815481106113d2576113d2612679565b6000918252602090912001546001600160a01b031614156114b757600880546113fd9060019061268f565b8154811061140d5761140d612679565b600091825260209091200154600880546001600160a01b03909216918390811061143957611439612679565b600091825260208083209190910180546001600160a01b0319166001600160a01b039485161790559184168152600482526040808220829055600790925220805460ff191690556008805480611491576114916126a6565b600082815260209020810160001990810180546001600160a01b03191690550190555050565b806114c1816126bc565b9150506113ab565b5050565b6001600160a01b03831661152f5760405162461bcd60e51b8152602060048201526024808201527f45524332303a20617070726f76652066726f6d20746865207a65726f206164646044820152637265737360e01b6064820152608401610823565b6001600160a01b0382166115905760405162461bcd60e51b815260206004820152602260248201527f45524332303a20617070726f766520746f20746865207a65726f206164647265604482015261737360f01b6064820152608401610823565b6001600160a01b0383811660008181526005602090815260408083209487168084529482529182902085905590518481527f8c5be1e5ebec7d5bd14f71427d1e84f3dd0314c0f7b2291e5b200ac8c7c3b925910160405180910390a3505050565b6001600160a01b0383166116555760405162461bcd60e51b815260206004820152602560248201527f45524332303a207472616e736665722066726f6d20746865207a65726f206164604482015264647265737360d81b6064820152608401610823565b6001600160a01b0382166116b75760405162461bcd60e51b815260206004820152602360248201527f45524332303a207472616e7366657220746f20746865207a65726f206164647260448201526265737360e81b6064820152608401610823565b600081116117195760405162461bcd60e51b815260206004820152602960248201527f5472616e7366657220616d6f756e74206d7573742062652067726561746572206044820152687468616e207a65726f60b81b6064820152608401610823565b6000546001600160a01b0384811691161480159061174557506000546001600160a01b03838116911614155b156117ad576014548111156117ad5760405162461bcd60e51b815260206004820152602860248201527f5472616e7366657220616d6f756e74206578636565647320746865206d6178546044820152673c20b6b7bab73a1760c11b6064820152608401610823565b60006117b830610c12565b905060145481106117c857506014545b6015546013549082101590600160a01b900460ff161580156117f35750601354600160a81b900460ff165b80156117fc5750805b801561183a57507f00000000000000000000000000000000000000000000000000000000000000006001600160a01b0316856001600160a01b031614155b1561185a5761184882611a55565b4780156118585761185847611c35565b505b6001600160a01b03851660009081526006602052604090205460019060ff168061189c57506001600160a01b03851660009081526006602052604090205460ff165b156118a5575060005b6118b186868684611c6f565b505050505050565b600081848411156118dd5760405162461bcd60e51b8152600401610823919061240d565b5060006118ea848661268f565b95945050505050565b6000806000611900611dec565b909250905061190f8282611916565b9250505090565b600061098e83836040518060400160405280601a81526020017f536166654d6174683a206469766973696f6e206279207a65726f000000000000815250611f6e565b6000806119658385612661565b90508381101561098e5760405162461bcd60e51b815260206004820152601b60248201527f536166654d6174683a206164646974696f6e206f766572666c6f7700000000006044820152606401610823565b60008060008060008060008060006119d48a600f54601054611f9c565b92509250925060006119e46118f3565b905060008060006119f68e8786611ff1565b919e509c509a509598509396509194505050505091939550919395565b600061098e83836040518060400160405280601e81526020017f536166654d6174683a207375627472616374696f6e206f766572666c6f7700008152506118b9565b6013805460ff60a01b1916600160a01b1790556040805160028082526060820183526000926020830190803683370190505090503081600081518110611a9d57611a9d612679565b60200260200101906001600160a01b031690816001600160a01b0316815250507f00000000000000000000000000000000000000000000000000000000000000006001600160a01b031663ad5c46486040518163ffffffff1660e01b8152600401602060405180830381865afa158015611b1b573d6000803e3d6000fd5b505050506040513d601f19601f82011682018060405250810190611b3f91906126d7565b81600181518110611b5257611b52612679565b60200260200101906001600160a01b031690816001600160a01b031681525050611b9d307f0000000000000000000000000000000000000000000000000000000000000000846114cd565b60405163791ac94760e01b81526001600160a01b037f0000000000000000000000000000000000000000000000000000000000000000169063791ac94790611bf29085906000908690309042906004016126f4565b600060405180830381600087803b158015611c0c57600080fd5b505af1158015611c20573d6000803e3d6000fd5b50506013805460ff60a01b1916905550505050565b6013546040516001600160a01b039091169082156108fc029083906000818181858888f193505050501580156114c9573d6000803e3d6000fd5b80611c7c57611c7c61202d565b6001600160a01b03841660009081526007602052604090205460ff168015611cbd57506001600160a01b03831660009081526007602052604090205460ff16155b15611cd257611ccd84848461205b565b611dd0565b6001600160a01b03841660009081526007602052604090205460ff16158015611d1357506001600160a01b03831660009081526007602052604090205460ff165b15611d2357611ccd848484612181565b6001600160a01b03841660009081526007602052604090205460ff16158015611d6557506001600160a01b03831660009081526007602052604090205460ff16155b15611d7557611ccd84848461222a565b6001600160a01b03841660009081526007602052604090205460ff168015611db557506001600160a01b03831660009081526007602052604090205460ff165b15611dc557611ccd84848461226e565b611dd084848461222a565b80611de657611de6601154600f55601254601055565b50505050565b600a546009546000918291825b600854811015611f3e57826003600060088481548110611e1b57611e1b612679565b60009182526020808320909101546001600160a01b031683528201929092526040019020541180611e865750816004600060088481548110611e5f57611e5f612679565b60009182526020808320909101546001600160a01b03168352820192909252604001902054115b15611e9c57600a54600954945094505050509091565b611ee26003600060088481548110611eb657611eb6612679565b60009182526020808320909101546001600160a01b031683528201929092526040019020548490611a13565b9250611f2a6004600060088481548110611efe57611efe612679565b60009182526020808320909101546001600160a01b031683528201929092526040019020548390611a13565b915080611f36816126bc565b915050611df9565b50600954600a54611f4e91611916565b821015611f6557600a546009549350935050509091565b90939092509050565b60008183611f8f5760405162461bcd60e51b8152600401610823919061240d565b5060006118ea8486612765565b6000808080611fb66064611fb089896122e1565b90611916565b90506000611fc96064611fb08a896122e1565b90506000611fe182611fdb8b86611a13565b90611a13565b9992985090965090945050505050565b600080808061200087866122e1565b9050600061200e87876122e1565b9050600061201c8383611a13565b929992985090965090945050505050565b600f5415801561203d5750601054155b1561204457565b600f80546011556010805460125560009182905555565b60008060008060008061206d876119b7565b6001600160a01b038f16600090815260046020526040902054959b5093995091975095509350915061209f9088611a13565b6001600160a01b038a166000908152600460209081526040808320939093556003905220546120ce9087611a13565b6001600160a01b03808b1660009081526003602052604080822093909355908a16815220546120fd9086611958565b6001600160a01b03891660009081526003602052604090205561211f81612360565b61212984836123e9565b876001600160a01b0316896001600160a01b03167fddf252ad1be2c89b69c2b068fc378daa952ba7f163c4a11628f55a4df523b3ef8560405161216e91815260200190565b60405180910390a3505050505050505050565b600080600080600080612193876119b7565b6001600160a01b038f16600090815260036020526040902054959b509399509197509550935091506121c59087611a13565b6001600160a01b03808b16600090815260036020908152604080832094909455918b168152600490915220546121fb9084611958565b6001600160a01b0389166000908152600460209081526040808320939093556003905220546120fd9086611958565b60008060008060008061223c876119b7565b6001600160a01b038f16600090815260036020526040902054959b509399509197509550935091506120ce9087611a13565b600080600080600080612280876119b7565b6001600160a01b038f16600090815260046020526040902054959b509399509197509550935091506122b29088611a13565b6001600160a01b038a166000908152600460209081526040808320939093556003905220546121c59087611a13565b6000826122f0575060006107f3565b60006122fc8385612787565b9050826123098583612765565b1461098e5760405162461bcd60e51b815260206004820152602160248201527f536166654d6174683a206d756c7469706c69636174696f6e206f766572666c6f6044820152607760f81b6064820152608401610823565b600061236a6118f3565b9050600061237883836122e1565b306000908152600360205260409020549091506123959082611958565b3060009081526003602090815260408083209390935560079052205460ff16156123e457306000908152600460205260409020546123d39084611958565b306000908152600460205260409020555b505050565b600a546123f69083611a13565b600a55600b546124069082611958565b600b555050565b600060208083528351808285015260005b8181101561243a5785810183015185820160400152820161241e565b8181111561244c576000604083870101525b50601f01601f1916929092016040019392505050565b6001600160a01b0381168114610b8257600080fd5b6000806040838503121561248a57600080fd5b823561249581612462565b946020939093013593505050565b6000602082840312156124b557600080fd5b5035919050565b6000806000606084860312156124d157600080fd5b83356124dc81612462565b925060208401356124ec81612462565b929592945050506040919091013590565b8035801515811461250d57600080fd5b919050565b6000806040838503121561252557600080fd5b82359150612535602084016124fd565b90509250929050565b60006020828403121561255057600080fd5b813561098e81612462565b6000806040838503121561256e57600080fd5b823561257981612462565b9150612535602084016124fd565b6000806040838503121561259a57600080fd5b82356125a581612462565b915060208301356125b581612462565b809150509250929050565b6000602082840312156125d257600080fd5b61098e826124fd565b600181811c908216806125ef57607f821691505b6020821081141561261057634e487b7160e01b600052602260045260246000fd5b50919050565b6020808252818101527f4f776e61626c653a2063616c6c6572206973206e6f7420746865206f776e6572604082015260600190565b634e487b7160e01b600052601160045260246000fd5b600082198211156126745761267461264b565b500190565b634e487b7160e01b600052603260045260246000fd5b6000828210156126a1576126a161264b565b500390565b634e487b7160e01b600052603160045260246000fd5b60006000198214156126d0576126d061264b565b5060010190565b6000602082840312156126e957600080fd5b815161098e81612462565b600060a082018783526020878185015260a0604085015281875180845260c086019150828901935060005b818110156127445784516001600160a01b03168352938301939183019160010161271f565b50506001600160a01b03969096166060850152505050608001529392505050565b60008261278257634e487b7160e01b600052601260045260246000fd5b500490565b60008160001904831182151516156127a1576127a161264b565b50029056fe45524332303a207472616e7366657220616d6f756e74206578636565647320616c6c6f77616e63658be0079c531659141344cd1fd0a4f28419497f9722a3daafe3b4186f6b6457e045524332303a2064656372656173656420616c6c6f77616e63652062656c6f77207a65726fa26469706673582212206724233c26b43b141cbb944d2a4272387a0b8ba9bd9d7f101d45dd3d272f0c0964736f6c634300080a0033",
    "linkReferences": {}
  }
}